{
  "_format": "hh-sol-artifact-1",
  "contractName": "Token",
  "sourceName": "contracts/Token.sol",
  "abi": [
    {
      "inputs": [
        {
          "internalType": "string",
          "name": "_name",
          "type": "string"
        },
        {
          "internalType": "string",
          "name": "_symbol",
          "type": "string"
        },
        {
          "internalType": "uint256",
          "name": "_totalSupply",
          "type": "uint256"
        }
      ],
      "stateMutability": "nonpayable",
      "type": "constructor"
    },
    {
      "anonymous": false,
      "inputs": [
        {
          "indexed": true,
          "internalType": "address",
          "name": "from",
          "type": "address"
        },
        {
          "indexed": true,
          "internalType": "address",
          "name": "to",
          "type": "address"
        },
        {
          "indexed": false,
          "internalType": "uint256",
          "name": "value",
          "type": "uint256"
        }
      ],
      "name": "Transfer",
      "type": "event"
    },
    {
      "inputs": [
        {
          "internalType": "address",
          "name": "",
          "type": "address"
        }
      ],
      "name": "balanceOf",
      "outputs": [
        {
          "internalType": "uint256",
          "name": "",
          "type": "uint256"
        }
      ],
      "stateMutability": "view",
      "type": "function"
    },
    {
      "inputs": [],
      "name": "decimal",
      "outputs": [
        {
          "internalType": "uint256",
          "name": "",
          "type": "uint256"
        }
      ],
      "stateMutability": "view",
      "type": "function"
    },
    {
      "inputs": [],
      "name": "name",
      "outputs": [
        {
          "internalType": "string",
          "name": "",
          "type": "string"
        }
      ],
      "stateMutability": "view",
      "type": "function"
    },
    {
      "inputs": [],
      "name": "symbol",
      "outputs": [
        {
          "internalType": "string",
          "name": "",
          "type": "string"
        }
      ],
      "stateMutability": "view",
      "type": "function"
    },
    {
      "inputs": [],
      "name": "totalSupply",
      "outputs": [
        {
          "internalType": "uint256",
          "name": "",
          "type": "uint256"
        }
      ],
      "stateMutability": "view",
      "type": "function"
    },
    {
      "inputs": [
        {
          "internalType": "address",
          "name": "_to",
          "type": "address"
        },
        {
          "internalType": "uint256",
          "name": "_value",
          "type": "uint256"
        }
      ],
      "name": "transfer",
      "outputs": [
        {
          "internalType": "bool",
          "name": "success",
          "type": "bool"
        }
      ],
      "stateMutability": "nonpayable",
      "type": "function"
    }
  ],
  "bytecode": "0x608060405260126002553480156200001657600080fd5b506040516200102f3803806200102f83398181016040528101906200003c9190620002a1565b82600090816200004d91906200057c565b5081600190816200005f91906200057c565b50600254600a620000719190620007e6565b816200007e919062000837565b600381905550600354600460003373ffffffffffffffffffffffffffffffffffffffff1673ffffffffffffffffffffffffffffffffffffffff1681526020019081526020016000208190555050505062000882565b6000604051905090565b600080fd5b600080fd5b600080fd5b600080fd5b6000601f19601f8301169050919050565b7f4e487b7100000000000000000000000000000000000000000000000000000000600052604160045260246000fd5b6200013c82620000f1565b810181811067ffffffffffffffff821117156200015e576200015d62000102565b5b80604052505050565b600062000173620000d3565b905062000181828262000131565b919050565b600067ffffffffffffffff821115620001a457620001a362000102565b5b620001af82620000f1565b9050602081019050919050565b60005b83811015620001dc578082015181840152602081019050620001bf565b60008484015250505050565b6000620001ff620001f98462000186565b62000167565b9050828152602081018484840111156200021e576200021d620000ec565b5b6200022b848285620001bc565b509392505050565b600082601f8301126200024b576200024a620000e7565b5b81516200025d848260208601620001e8565b91505092915050565b6000819050919050565b6200027b8162000266565b81146200028757600080fd5b50565b6000815190506200029b8162000270565b92915050565b600080600060608486031215620002bd57620002bc620000dd565b5b600084015167ffffffffffffffff811115620002de57620002dd620000e2565b5b620002ec8682870162000233565b935050602084015167ffffffffffffffff81111562000310576200030f620000e2565b5b6200031e8682870162000233565b925050604062000331868287016200028a565b9150509250925092565b600081519050919050565b7f4e487b7100000000000000000000000000000000000000000000000000000000600052602260045260246000fd5b600060028204905060018216806200038e57607f821691505b602082108103620003a457620003a362000346565b5b50919050565b60008190508160005260206000209050919050565b60006020601f8301049050919050565b600082821b905092915050565b6000600883026200040e7fffffffffffffffffffffffffffffffffffffffffffffffffffffffffffffffff82620003cf565b6200041a8683620003cf565b95508019841693508086168417925050509392505050565b6000819050919050565b60006200045d62000457620004518462000266565b62000432565b62000266565b9050919050565b6000819050919050565b62000479836200043c565b62000491620004888262000464565b848454620003dc565b825550505050565b600090565b620004a862000499565b620004b58184846200046e565b505050565b5b81811015620004dd57620004d16000826200049e565b600181019050620004bb565b5050565b601f8211156200052c57620004f681620003aa565b6200050184620003bf565b8101602085101562000511578190505b620005296200052085620003bf565b830182620004ba565b50505b505050565b600082821c905092915050565b6000620005516000198460080262000531565b1980831691505092915050565b60006200056c83836200053e565b9150826002028217905092915050565b62000587826200033b565b67ffffffffffffffff811115620005a357620005a262000102565b5b620005af825462000375565b620005bc828285620004e1565b600060209050601f831160018114620005f45760008415620005df578287015190505b620005eb85826200055e565b8655506200065b565b601f1984166200060486620003aa565b60005b828110156200062e5784890151825560018201915060208501945060208101905062000607565b868310156200064e57848901516200064a601f8916826200053e565b8355505b6001600288020188555050505b505050505050565b7f4e487b7100000000000000000000000000000000000000000000000000000000600052601160045260246000fd5b60008160011c9050919050565b6000808291508390505b6001851115620006f157808604811115620006c957620006c862000663565b5b6001851615620006d95780820291505b8081029050620006e98562000692565b9450620006a9565b94509492505050565b6000826200070c5760019050620007df565b816200071c5760009050620007df565b8160018114620007355760028114620007405762000776565b6001915050620007df565b60ff84111562000755576200075462000663565b5b8360020a9150848211156200076f576200076e62000663565b5b50620007df565b5060208310610133831016604e8410600b8410161715620007b05782820a905083811115620007aa57620007a962000663565b5b620007df565b620007bf84848460016200069f565b92509050818404811115620007d957620007d862000663565b5b81810290505b9392505050565b6000620007f38262000266565b9150620008008362000266565b92506200082f7fffffffffffffffffffffffffffffffffffffffffffffffffffffffffffffffff8484620006fa565b905092915050565b6000620008448262000266565b9150620008518362000266565b9250828202620008618162000266565b915082820484148315176200087b576200087a62000663565b5b5092915050565b61079d80620008926000396000f3fe608060405234801561001057600080fd5b50600436106100625760003560e01c806306fdde031461006757806318160ddd1461008557806370a08231146100a357806376809ce3146100d357806395d89b41146100f1578063a9059cbb1461010f575b600080fd5b61006f61013f565b60405161007c91906104e8565b60405180910390f35b61008d6101cd565b60405161009a9190610523565b60405180910390f35b6100bd60048036038101906100b891906105a1565b6101d3565b6040516100ca9190610523565b60405180910390f35b6100db6101eb565b6040516100e89190610523565b60405180910390f35b6100f96101f1565b60405161010691906104e8565b60405180910390f35b610129600480360381019061012491906105fa565b61027f565b6040516101369190610655565b60405180910390f35b6000805461014c9061069f565b80601f01602080910402602001604051908101604052809291908181526020018280546101789061069f565b80156101c55780601f1061019a576101008083540402835291602001916101c5565b820191906000526020600020905b8154815290600101906020018083116101a857829003601f168201915b505050505081565b60035481565b60046020528060005260406000206000915090505481565b60025481565b600180546101fe9061069f565b80601f016020809104026020016040519081016040528092919081815260200182805461022a9061069f565b80156102775780601f1061024c57610100808354040283529160200191610277565b820191906000526020600020905b81548152906001019060200180831161025a57829003601f168201915b505050505081565b600081600460003373ffffffffffffffffffffffffffffffffffffffff1673ffffffffffffffffffffffffffffffffffffffff1681526020019081526020016000205410156102cd57600080fd5b81600460003373ffffffffffffffffffffffffffffffffffffffff1673ffffffffffffffffffffffffffffffffffffffff1681526020019081526020016000205461031891906106ff565b600460003373ffffffffffffffffffffffffffffffffffffffff1673ffffffffffffffffffffffffffffffffffffffff1681526020019081526020016000208190555081600460008573ffffffffffffffffffffffffffffffffffffffff1673ffffffffffffffffffffffffffffffffffffffff168152602001908152602001600020546103a69190610733565b600460008573ffffffffffffffffffffffffffffffffffffffff1673ffffffffffffffffffffffffffffffffffffffff168152602001908152602001600020819055508273ffffffffffffffffffffffffffffffffffffffff163373ffffffffffffffffffffffffffffffffffffffff167fddf252ad1be2c89b69c2b068fc378daa952ba7f163c4a11628f55a4df523b3ef846040516104469190610523565b60405180910390a36001905092915050565b600081519050919050565b600082825260208201905092915050565b60005b83811015610492578082015181840152602081019050610477565b60008484015250505050565b6000601f19601f8301169050919050565b60006104ba82610458565b6104c48185610463565b93506104d4818560208601610474565b6104dd8161049e565b840191505092915050565b6000602082019050818103600083015261050281846104af565b905092915050565b6000819050919050565b61051d8161050a565b82525050565b60006020820190506105386000830184610514565b92915050565b600080fd5b600073ffffffffffffffffffffffffffffffffffffffff82169050919050565b600061056e82610543565b9050919050565b61057e81610563565b811461058957600080fd5b50565b60008135905061059b81610575565b92915050565b6000602082840312156105b7576105b661053e565b5b60006105c58482850161058c565b91505092915050565b6105d78161050a565b81146105e257600080fd5b50565b6000813590506105f4816105ce565b92915050565b600080604083850312156106115761061061053e565b5b600061061f8582860161058c565b9250506020610630858286016105e5565b9150509250929050565b60008115159050919050565b61064f8161063a565b82525050565b600060208201905061066a6000830184610646565b92915050565b7f4e487b7100000000000000000000000000000000000000000000000000000000600052602260045260246000fd5b600060028204905060018216806106b757607f821691505b6020821081036106ca576106c9610670565b5b50919050565b7f4e487b7100000000000000000000000000000000000000000000000000000000600052601160045260246000fd5b600061070a8261050a565b91506107158361050a565b925082820390508181111561072d5761072c6106d0565b5b92915050565b600061073e8261050a565b91506107498361050a565b9250828201905080821115610761576107606106d0565b5b9291505056fea26469706673582212209c499445c010951d0badd593384653024ad7a236255f82478feaca5da3f4d89464736f6c63430008110033",
  "linkReferences": {},
  "deployedLinkReferences": {}
}